:020000040800F2
:1000000070050024E1020008A9160008111100087B
:10001000A11600085103000889180008000000001C
:10002000000000000000000000000000E9160008C9
:100030005903000800000000E1160008211700081D
:10004000FB020008FB020008FB020008FB0200089C
:10005000FB020008FB020008FB020008FB0200088C
:10006000FB020008FB020008FB020008FB0200087C
:10007000FB020008FB020008FB020008FB0200086C
:10008000FB020008FB020008FB020008FB0200085C
:10009000FB020008FB020008FB020008FB0200084C
:1000A000FB020008FB020008FB020008FB0200083C
:1000B000FB020008FB020008FB020008FB0200082C
:1000C000FB020008FB020008FB020008FB0200081C
:1000D000FB020008FB020008FB020008FB0200080C
:1000E000FB020008FB02000800000000FB02000801
:1000F000FB020008FB020008FB020008FB020008EC
:10010000FB020008FB020008FB020008FB020008DB
:10011000FB020008FB020008FB020008FB020008CB
:10012000FB020008FB020008FB020008FB020008BB
:10013000FB020008FB020008FB020008FB020008AB
:1001400000000000000000000000000000000000AF
:10015000FB020008FB020008FB020008FB0200088B
:10016000FB020008FB020008FB020008FB0200087B
:10017000FB020008FB020008FB0200080000000070
:10018000FB020008FB020008FB020008FB0200085B
:10019000FB020008FB020008FB020008FB0200084B
:1001A000FB020008FB020008FB0200080000000040
:1001B000FB020008FB020008FB020008FB0200082B
:1001C000FB020008FB020008000000000000000025
:1001D0000000000000000000FB020008000000001A
:1001E000000000000000000000000000000000000F
:1001F0000000000000000000FB020008FB020008F5
:10020000FB020008FB02000800000000FB020008DF
:10021000FB020008FB020008FB020008FB020008CA
:10022000FB02000800000000FB02000800000000C4
:10023000FB020008FB02000800000000FB020008AF
:10024000FB020008FB020008FB020008FB0200089A
:10025000FB020008FB020008FB020008FB0200088A
:10026000FB020008FB020008FB020008FB0200087A
:10027000FB020008FB020008FB020008000000006F
:10028000FB020008FB020008FB020008FB0200085A
:1002900000000000FB020008FB0200080000000054
:1002A00000000000FB020008FB020008FB0200083F
:1002B000FB020008FB020008FB020008FB0200082A
:1002C000FB020008FB020008FB020008DFF80CD06C
:1002D00000F02AF800480047011A000870050024C1
:1002E0000648804706480047FEE7FEE7FEE7FEE7D0
:1002F000FEE7FEE7FEE7FEE7FEE7FEE7D9170008A8
:10030000CD020008D2B201E000F8012B491EFBD259
:1003100070470022F6E710B513460A460446194610
:10032000FFF7F0FF204610BD064C074D06E0E068E1
:1003300040F0010394E8070098471034AC42F6D32C
:10034000FFF7C8FFCC1A0008EC1A000800000000F4
:10035000FEE7000000000000704700000000000001
:10036000EFF3108072B600BFFEE70000000000004F
:10037000B0B5044600F0F0F840F210010546C2F2B4
:100380000041621C097818BF0C4400BF00F0E4F87B
:10039000401BA042FAD3B0BD2DE9F04F83B00C68EA
:1003A000002C00F0C68000F1264242F2004702F124
:1003B000FF72C5F602074FEAB22201920A22B84242
:1003C00008BF0922002500274FF0010A009209E02A
:1003D0000C68043734FA0AF20AF1010A05F1020541
:1003E00000F0A780AAF10109012202FA09FE14EA2D
:1003F0000E08EDD0D1F804B00BF00304A4F1010C09
:10040000BCF1010F11D803228668AA40CB6826EA06
:100410000202AB401A438260CBF30013426822EA27
:100420000E0203FA09F31A434260032C1ED0032381
:10043000C268AB40022C22EA03028B6803FA05F380
:1004400042EA0302C26011D16FF0030207F01C06FA
:1004500002EA59020F23024403FA06F4D2F820C03C
:100460000B692CEA0404B34023431362032302689C
:10047000AB404E689A4306F00303AB4016F4403F8E
:1004800042EA03020260A3D044F2F44340F2084E71
:10049000C5F60203C5F6000E1A6842F002021A60A1
:1004A0001A6807F00C0302F002020292029A29F085
:1004B0000302019C009E082C38BF26460F2452F8E8
:1004C0000EC09C402CEA040406FA03F34FF0B04C33
:1004D000234342F80E30DCF800204B6842EA08065D
:1004E000DC0258BF22EA08069C02CCF8006040F209
:1004F000040CC5F6000CDCF8002042EA080658BFE0
:1005000022EA08069C03CCF80060DCF8802042EA6E
:10051000080658BF22EA0806DB03CCF88060DCF846
:100520007C2042EA080658BF22EA0806CCF87C6024
:100530004EE703B0BDE8F08F426902EA0103914340
:1005400041EA034181617047002A08BF09048161C3
:10055000704700000000000040F26C10C2F2004042
:10056000006870470000000040F2100040F26C117B
:10057000C2F20040C2F2004100780A6810440860EC
:10058000704700000000000080B5032000F07CF8F8
:1005900000F0AEFA44F2184141F6BA23C5F6020162
:1005A000C0F600030A68096801F00F01C2F30322D4
:1005B000595C9A5C01F01F0102F01F02D04040F22A
:1005C0000C02C2F2004220FA01F1116040F208016F
:1005D000C2F200410860002000F00AF800281CBFA9
:1005E000012080BD00F030F8002080BD0000000038
:1005F000B0B540F21001C2F20041097801B30446DF
:1006000040F20800C2F200404FF47A72B2FBF1F1FE
:100610000068B0FBF1F000F077FD0F2C4FF0010502
:100620000CD858B94FF0FF3000222146002500F0C9
:100630001BF840F21400C2F2004004602846B0BD2E
:100640000120B0BD0000000081B044F2F440C5F6C6
:100650000200016841F002010160006800F0020040
:100660000090009801B0704770B514460D460646DC
:1006700001F00EF92946224601F01AF801463046EB
:1006800001F00EF970BD000080B501F01DF980BDCC
:10069000B0B544F60C05C5F6020529684907296876
:1006A00005D401F00701081A18BF0120B0BD21F0E0
:1006B000070108432860FFF74FFF044655F8080C70
:1006C000800407D4FFF748FF001BB0F57A7FF5D907
:1006D0000120B0BD0020B0BD2DE9F04381B000285D
:1006E00000F0F48042F200080446C5F20028894672
:1006F000D8F8000000F00F0088420ED2D8F80000B1
:1007000020F00F0040EA0900C8F80000D8F8000007
:1007100000F00F00484540F0D980206844F21847A7
:100720004107C5F602070AD521693A6802F070024E
:10073000914204D93A6822F07002114339600107EE
:100740000AD561697A6802F07002914204D97A6828
:1007500022F0700211437960C1060AD5A1697A6856
:1007600002F4E062914204D97A6822F4E062114313
:10077000796081060AD5E169BA6802F07002914297
:1007800004D9BA6822F070021143B96081070AD512
:10079000E1683A6802F00F02914204D93A6822F007
:1007A0000F0211433960C0077ED1206881070AD546
:1007B000E1683A6802F00F02914204D23A6822F0EE
:1007C0000F0211433960D8F8001001F00F014945BC
:1007D0000DD9D8F8001021F00F0141EA0901C8F83D
:1007E0000010D8F8001001F00F0149456ED1410703
:1007F0000AD521693A6802F07002914204D23A683F
:1008000022F070021143396001070AD561697A68E4
:1008100002F07002914204D27A6822F07002114311
:100820007960C1060AD5A1697A6802F4E062914252
:1008300004D27A6822F4E0621143796080060AD516
:10084000E069B96801F07001884204D2B96821F00A
:1008500070010843B86000F04BF9396841F6BA22DC
:10086000C0F600023B68C1F3032103F00F03515CA3
:10087000D25C01F01F01C84002F01F0140F20C02DF
:1008800020FA01F1C2F20042116040F2080140F288
:100890001402C2F20041C2F2004208601068FFF781
:1008A000A7FE01B0BDE8F083386820F47061D4E998
:1008B0000102012841EA020139600BD003282BD044
:1008C00002282ED157F8181C890307D4012001B043
:1008D000BDE8F08357F8181CC905F7D557F8081C70
:1008E00021F00701084347F8080CFFF735FE0646DC
:1008F00041F2883557F8080C616800F03800B0EB19
:10090000C10F3FF452AFFFF727FE801BA842F1D979
:10091000032001B0BDE8F08357F8181C8901D5D534
:10092000DCE757F8181C4907D0D5D7E700000000CE
:100930002DE9F04142F20008C5F20028D8F8000085
:1009400000F00F0006280CD8D8F80000072161F34A
:100950000300C8F80000D8F8000000F00F000728D6
:1009600031D144F20047C5F60207FFF7F5FD044612
:10097000386840F0010038603868400707D4FFF756
:10098000EBFD001B0228F7D90320BDE8F081786851
:1009900049F2000140F0804078600020386140F268
:1009A0000800C0F2D031C2F2004040F21402C2F29C
:1009B0000042016040F20C00C2F200400160106889
:1009C000FFF716FE10B10120BDE8F081FFF7C4FD6E
:1009D000044641F2883600BF3D69FFF7BDFD15F0C2
:1009E000380F054605D0281BB042F5D90320BDE8D5
:1009F000F0814EF645513868CFF6F6710840386000
:100A00003C68FFF7A9FDA103044605D5601B6428D7
:100A1000F6D90320BDE8F081386820F08070386096
:100A20003D68FFF799FDA901054605D5281B022859
:100A30004FF00300F4D956E0386820F08060386049
:100A40003C68FFF789FD2101044605D5601B02289B
:100A50004FF00300F4D946E0386820F08050386049
:100A60003868800007D5FFF777FD001B02284FF09C
:100A70000300F5D937E040F200210020B861C0F250
:100A80000221F8613862B9620021C0F2FF11F962F7
:100A900040F28021C0F2011139637863B963F863D1
:100AA00039647864396821F48021396038664FF000
:100AB000FF30B866D7F8D00040F48030C7F8D000D7
:100AC000D8F8000000070DD5D8F80000072161F321
:100AD0000300C8F80000D8F8000000F00F00072855
:100AE0007FF471AF0020BDE8F0810000000000003D
:100AF00044F20041C5F602010869C0F3C2000328B0
:100B00000FD002282AD070BB0868800649F2000086
:100B1000C0F2D03058BF70470968C1F3C101C84066
:100B200070478A6A886AC0F3051CC86ABCF1000F66
:100B30004B6B1DD0C3F3CC0300F00100584302F00F
:100B40000302022A00EE100AB8EE400A12D0A2B93F
:100B50000868800614D49FED261A1EE041F200209A
:100B6000C0F27A00704740F60010C0F23D007047B6
:100B7000002070479FED1D1A0FE09FED1B1A0CE03F
:100B8000086849F20002C0F2D032C0F3C10022FA74
:100B900000F001EE100AB8EE411A086B9FED153A0D
:100BA0006FF35F2002EE100A086BC0F34620B8EE28
:100BB000422A013000EE032A00EE10CAB7EE003AD6
:100BC000B8EE400A81EE000A32EE031A20EE010A66
:100BD00001EE100AB8EE411A80EE010ABCEEC00A1E
:100BE00010EE100A704700BF0024744A0024F44A33
:100BF0000024744C000000392DE9F04381B0D8B1D5
:100C00008046007844F20046C007C5F602064DD083
:100C1000306900F03801B06A102905D018290DD1CB
:100C200000F00300022809D1306880033AD5D8F8D3
:100C30000400B8BB012728E00127CAE1D8F8045016
:100C40002DB1B5F5A02F0AD0B5F5803F0BD0306897
:100C500020F480303060306820F4802006E0306876
:100C600040F480203060306840F480303060FFF71E
:100C700073FC002D054612D03068800312D4FFF7B4
:100C80006BFC401B6428F7D903270020002800F0E4
:100C9000A0810BE0FFF760FC401B6428F4D83068AB
:100CA0008003F7D40120002800F0938198F8000019
:100CB00080075ED5306910F03801B06A19D0182964
:100CC00008BF5FEA807014D0D8F80C003168C0B358
:100CD00021F0190108433060FFF73EFC054600BFD4
:100CE0003068400723D4FFF737FC401B0228F7D9B0
:100CF0001AE03068400704D5D8F80C00002800F04E
:100D000036813068D8F80C1020F0190008433060A4
:100D1000FFF722FC054600BF3068400707D4FFF705
:100D20001BFC401B0228F7D9032700241EE0706833
:100D3000D8F8101020F0FE40012440EA01607060F5
:100D400014E021F001003060FFF706FC05464FF08B
:100D5000010900BF306810F0040089EA900405D052
:100D6000FFF7FAFB401B0328F4D30327002C00F005
:100D7000308198F80000C0064CD5306900F0380189
:100D8000B06A082905D0182914D100F00300012801
:100D900010D13068C00503D5D8F81C00802834D1A4
:100DA000F068D8F8201020F07C50012440EA01605F
:100DB000F0602CE0D8F81C000028306810D040F01B
:100DC00080003060FFF7C8FB054600BF3068C005F3
:100DD000E6D4FFF7C1FB401B0228F7D9032715E033
:100DE00020F080003060FFF7B7FB05464FF00109A7
:100DF000306810F4807089EA102408D0FFF7ACFB4B
:100E0000401B0328F4D3032701E001270024002C12
:100E100000F0DF8098F80000000718D498F8000070
:100E2000800629D498F8000040073BD4D8F8244025
:100E3000002C00F0CD80306900F03800182877D100
:100E4000012CB16A306B40F094800127C1E0D8F8E2
:100E500014000028706F3AD040F001007067FFF76F
:100E60007BFB0546706F8007D8D4FFF775FB401BEE
:100E70000228F7D90327ACE0D8F81800002830681A
:100E800044D040F480503060FFF766FB054600BF59
:100E900030688004C6D4FFF75FFB401B0228F7D9F7
:100EA000032796E0D6F8000440F48070C6F80004EA
:100EB000FFF752FB054600BFD6F80004C00516D464
:100EC000FFF74AFB401B6428F6D9032781E020F096
:100ED00001007067FFF740FB05460327706F80072E
:100EE0009CD5FFF739FB401B0228F7D971E0D8F8F1
:100EF00008501DB1052D70D0012D72D0306F20F03B
:100F000001003067306F20F004006DE020F4805065
:100F10003060FFF721FB0546032700BF30688004DF
:100F20007FF580AFFFF718FB401B0228F6D950E091
:100F3000306820F080703060FFF70EFB022C054611
:100F40004FF003070AD100BF3068800169D5FFF771
:100F500003FB401B0228F7D93BE000BF306880014B
:100F600036D5FFF7F9FA401B0228F7D931E00127FF
:100F7000DBE601F00302D8F828309A4240F0B58051
:100F8000C1F30511D8F82C20914240F0B080014601
:100F9000D8F830206FF35F21013A914240F0A980E8
:100FA000C0F34622D8F8341001398A4240F0A380B9
:100FB000C0F30642D8F8381001398A4240F09D80CB
:100FC000C0F30660D8F83C100139884240F09780A1
:100FD0000027F8B201B0BDE8F083306F40F00400A4
:100FE0003067306F40F001003067FFF7B5FA002D31
:100FF000054641F288344FF003070ED0306F80076A
:101000003FF514AFFFF7A8FA401BA042F6D9E0E77E
:10101000FFF7A2FA401BA042DBD8306F8007F7D45D
:1010200004E708F12807B06A40F2F33188438ECF15
:101030000843591E40EA02104FF47E426FF35F21CD
:10104000B06202EB47204FF4FE0280B2D8F83C3089
:101050000844D8F8381002EB01414FF0FE4201F489
:10106000FE0102EB0362084402F0FE4108443063D3
:10107000F06A4FF6F87120F00100F062706BD8F85A
:101080004820884340EAC2007063F06AD8F84010F4
:1010900020F00C000843F062F06AD8F8441020F009
:1010A00002000843F062F06A40F48030F062F06AB7
:1010B00040F40030F062F06A40F48020F062F06AA0
:1010C00040F00100F062306840F080703060FFF75F
:1010D00043FA04460327306880013FF579AFFFF7F4
:1010E0003BFA001B0228F6D973E7012771E70127B5
:1010F0006FE701276DE701276BE7012769E7012704
:1011000067E700000000000080B500F0F1FA80BD44
:10111000FEE700000000000082B000204EF2100444
:10112000C0F6020001900090012080F31088CEF2FA
:101130000004FFF7FDFB00204FF0FF3120606060EE
:10114000A06000BF04EB800201300828C2F87011D3
:10115000C2F87012F6D1002080F310880199496816
:10116000019A52680092019A126882F3088880F30B
:1011700014888847FEE700002DE9F04786B0064650
:101180000128984691460C464FF00007CDE90477B8
:10119000CDE90277019708DB4F463546384600F027
:1011A000A3FB013D07F10807F8D1012C09DB4746F5
:1011B000254600BF384600F097FB013D07F10807C0
:1011C000F8D14FF0000A012ECDF808A04FF0020030
:1011D00003900CDBA9F1080501AF00BF55F8080F1B
:1011E000A98801913946FFF7D7F8013EF6D1012CC5
:1011F0004FF00100CDE9020ACDF810A00BDBA8F1F9
:10120000080601AD56F8080FB18801912946FFF78D
:10121000C3F8013CF6D106B0BDE8F087000000003D
:101220004FF0000C042898BF042901D9604670478C
:1012300070B540F2000540F20404C2F200450029F6
:10124000C2F2004428600D4608BF01250128256030
:1012500012DB40F21805A2F1080EC2F20045044666
:10126000A5F1080C5EF8085F013CDEF804604CF85C
:10127000085FCCF80460F5D1012913DB40F23C157E
:10128000A3F1080EC2F200450C46A5F1080C00BF00
:101290005EF8085F013CDEF804604CF8085FCCF8AB
:1012A0000460F5D140F238054FF0100EC2F200454F
:1012B0000124A5F1100C00250CF8104FBEF1010E11
:1012C000CCE901558CF80C50F6D1FFF755FF012001
:1012D00000F0DEFB00F080FB8446BDE87040604615
:1012E000704700000000000001680969808808401C
:1012F000C0B270470000000082880029006808BF63
:1013000012048261704700002DE9F04F81B000F0B7
:1013100063FB002800F0E68040F2000A40F2381833
:10132000C2F2004AC2F20048DAF8000001281DDBD0
:1013300098F8001040F23802C2F2004240F2180958
:101340000020C2F2004902EB8115002405EB0016D3
:1013500009EBC000377BFFF7C7FF40EA4700307357
:101360000134DAF80010E0B28142EFDCDAF8000074
:1013700040F2040440F238070128C2F20044C2F2ED
:101380000047C0F2898000254FF000094FF0000BA4
:101390000AE0581C106000BF0BF1010BDAF80000E6
:1013A0005FFA8BF9484577DD98F8000007EB80126B
:1013B00002EB09110B4613F80C6F360710D01B789F
:1013C00003F00F030F2BE7D10B4653F8086F092EDC
:1013D0002EDC1B6863B34FEA09130327D7542CE0B4
:1013E0004D608B68B3B94FEA09130126D65440F219
:1013F0005C12C2F20042127862B1227809780BFBCB
:10140000020001EB800040B200F086F840F238079D
:10141000C2F2004798F8000007EB801000EB0910BB
:1014200050F8081F0929B7DC016801310160B3E7F2
:101430004B687BB94FEA0913D554227809780BFB26
:10144000020001EB800040B200F066F840F238077D
:10145000C2F2004798F8000007EB801101EB091277
:10146000956052F8043FF92B136892DDFA2B93D163
:101470004FEA0913D22717600222CA542278C95CA6
:101480000BFB020001EB800040B200F045F840F297
:101490003807C2F200477FE72068022822DB98F86D
:1014A00000100131CAB290422068D8BF0021012843
:1014B00088F8001016DB40F23C150020C2F200450F
:1014C000002600BFF2B298F8001005EBC000511AD8
:1014D000B1FA81F14909FFF70FFF01362168F0B237
:1014E0008142EFDC01B0BDE8F08F00000000000099
:1014F00040F25E10C2F20040817AC27A914202D17B
:10150000FF2148B270474A1C415CD3B2092B88BF07
:101510000022827248B2704740F25E11C2F200416E
:10152000CA7A8854C87A0130C2B2092A88BF00201A
:10153000C8727047000000002DE9F04F87B044F2F8
:10154000E0400024C5F602000694CDE90444CDE94C
:101550000244016840F2000941F0040101600168A1
:10156000C5F6020901F0040101910199016841F0F9
:1015700080010160016809F5806501F08001019139
:101580000199016841F0010101600168002201F048
:10159000010101910199016841F0020101600168B6
:1015A00044F2010A01F0020101910199016841F040
:1015B00008010160016801F00801019101990168C9
:1015C00041F040010160016801F040010191019981
:1015D000016841F010010160006844F2010100F06F
:1015E0001000019001982846FEF7AEFF09F540670C
:1015F0004FF4806100223846FEF7A6FF09F58058B7
:10160000022100224046FEF79FFF02AE48463146C7
:101610004FF0010BCDE902B40494FEF7BDFE28465D
:101620003146CDE902ABCDE90444FEF7B5FE4FF4F7
:1016300080600290384631464FF480650594CDE9CC
:1016400003B4FEF7A9FE802002904FF488103146C3
:10165000CDE9030409F5C050FEF79EFE4FF400707B
:101660003146CDE9020448460494FEF795FE0A206F
:1016700006904846314602950225CDE9035405946B
:10168000FEF78AFE40463146CDE9025BCDE90444CF
:10169000FEF782FE07B0BDE8F08F000000000000FA
:1016A000FEE7000000000000FEE700000000000070
:1016B00000F007004FF0FF3C80F00703042B28BF29
:1016C0000423033838BF00200CFA03F399430CFAC3
:1016D00000F301FA00F022EA03010843704700001A
:1016E000704700000000000070470000000000008C
:1016F000B0B501380024B4EB106F01D00120B0BDAB
:101700004EF210050F21CEF2000568604FF0FF3059
:1017100000F0C6F8AC60072028602046B0BD00008D
:1017200080B5FEF721FF80BDB0B59CB044F618042B
:1017300009A84C21C5F60204FEF7EBFD02200025A6
:10174000CDE90755CDE90555CDE90355CDE901555D
:10175000FEF79EFF0095206820F44040206020683E
:1017600000F440400090009820688004FCD52120BF
:1017700009904FF4A0200A9001200F9040F213131B
:101780000221CDE9153009A80422CDE912111492E5
:101790000024CDE917211992CDE91A44FFF72CFA5C
:1017A000A8B93F20019003204FF48061CDE90204E5
:1017B000082004904020CDE90500CDE9071001A8DC
:1017C0000321FEF789FF002804BF1CB0B0BDFEF75F
:1017D000C7FD0000000000004EF6885042F2000CE9
:1017E000CEF20000C5F2002C026842F470020260E2
:1017F000DCF8000000F00F00062806D8DCF8000036
:10180000072262F30300CCF8000044F200404EF6D9
:101810007F51C5F60200CEF6F621026842F00102C1
:10182000026000220261036819400160DCF80010C8
:10183000090706D5DCF80010072363F30301CCF891
:10184000001040F200218261C261C0F202210262F6
:1018500081620021C0F2FF11C16240F28021C0F21A
:101860000111016342638163C263016442640168E0
:1018700021F480210160026644F20000C5F20020DC
:1018800043F2D20101607047FEE700000000000053
:101890004EF60C50CEF200000068C0F302207047F4
:1018A0004EF6145300F00F02CEF20003B0F1FF3FEA
:1018B0001A4400F16043C8BF03F564420801107088
:1018C00070470000000000004EF60C514FF6FF0379
:1018D000CEF200010A681A4060F30A2242F08060EA
:1018E00040F0FD700860704781B0006800F126404C
:1018F00000F1FF704FEAB020072869D8DFE800F058
:1019000004101C2834404C5B44F2E040C5F6020051
:10191000016841F001010160006800F0010046E04B
:1019200044F2E040C5F60200016841F002010160A6
:10193000006800F002003AE044F2E040C5F6020020
:10194000016841F004010160006800F004002EE02D
:1019500044F2E040C5F60200016841F00801016070
:10196000006800F0080022E044F2E040C5F6020002
:10197000016841F010010160006800F0100016E0FD
:1019800044F2E040C5F60200016841F02001016028
:10199000006800F020000AE044F2E040C5F60200D2
:1019A000016841F040010160006800F040000090D3
:1019B000009801B0704744F2E040C5F602000168AB
:1019C00041F080010160006800F080000090009804
:1019D00001B070470000000040F25D10C2F200400C
:1019E000007870470000000040F25E10C2F2004034
:1019F000817AC07A081AB0FA80F040097047000076
:101A000086B0FEF7C1FDFFF78FFEFFF795FD0120C1
:101A10000590002004AAC5F60200049001200021D0
:101A200000230024FFF7FCFB0020C0F60200039017
:101A300041F601200294C0F6000001940290006873
:101A4000019003980068029005E000BFFFF75CFC7E
:101A50000020FEF78DFCFFF7C7FF0028F6D1FFF747
:101A600047FD0028F2D140F200440121C5F60204EE
:101A70002046FEF761FD4FF480412046FEF75CFDF5
:101A800004F540600221FEF757FDFFF745FB00001B
:101A900040F25D11C2F200410870704702E008C8D0
:101AA000121F08C1002AFAD170477047002001E0D8
:101AB00001C1121F002AFBD1704700000000010283
:101AC000030401020304060708090000F01A0008D5
:101AD00000000024180000009C1A0008081B0008E1
:101AE0001800002458050000AC1A0008000000008F
:101AF00004000000040000000090D0030090D00318
:081B00000100000010000000CC
:04000005080002CD20
:00000001FF
